:100000000C949F000C94C7000C94C7000C94C7007C
:100010000C94C7000C94C7000C94C7000C94C70044
:100020000C94C7000C94ED020C94C7000C94DE0DE8
:100030000C94C7000C94C7000C94C7000C94C70024
:100040000C94D8060C94C7000C9452090C948409A3
:100050000C94C7000C94C7000C94C7000C94C70004
:100060000C94C7000C94C70007634236B79BD8A70F
:100070001A39685618AEBAAB558C1D3CB7CC5763CD
:10008000BD6DEDFD753EF6177231BF000000803F7B
:1000900008000000BE922449123EABAAAA2ABECD97
:1000A000CCCC4C3E00000080BEABAAAAAA3E000009
:1000B0000000BF000000803F000000000008417801
:1000C000D3BB4387D1133D190E3CC3BD4282AD2B38
:1000D0003E68EC8276BED98FE1A93E4C80EFFFBE30
:1000E00001C4FF7F3F000000000000000008000284
:1000F00001000003040700000000000000000102EE
:1001000004081020408001020408102001020408A5
:100110001020040404040404040402020202020283
:1001200003030303030300000000250028002B0045
:1001300000000000240027002A00BE06B409112494
:100140001FBECFEFD8E0DEBFCDBF12E0A0E0B1E030
:10015000E0EFFBE202C005900D92AC35B107D9F794
:1001600023E0ACE5B2E001C01D92A136B207E1F791
:1001700010E0CFE9D0E004C02197FE010E940B13EC
:10018000CD39D107C9F70E949C040C94F6150C9444
:10019000DA0D00002F923F924F925F926F927F9202
:1001A0008F929F92AF92BF92CF92DF92EF92FF9287
:1001B0000F931F93CF93DF93E42FF52F419050803F
:1001C0004F925F92E42FF52F4DB65EB6419250826A
:1001D0000C94EA00E62FF72F419050804DBE5EBE92
:1001E0005F904F90E62FF72F41925082DF91CF9191
:1001F0001F910F91FF90EF90DF90CF90BF90AF9045
:100200009F908F907F906F905F904F903F902F9036
:100210000C94EF0AE62FF72F419150814DBF5EBF3E
:100220000C94F80A2F923F924F925F926F927F92B6
:100230008F929F92AF92BF92CF92DF92EF92FF92F6
:100240000F931F93CF93DF93E42FF52F41905080AE
:100250004F925F92E42FF52F4DB65EB641925082D9
:100260000C940A01E82FF92F419150814DBF5EBFD8
:10027000E62FF72F0994000090E080E0089508959C
:10028000CF93DF93EC0160E08E810E94CD0781E087
:1002900090E00E94220761E08E810E94CD0781E0FC
:1002A00090E00E94220760E08E810E94CD0784E6E4
:1002B00090E0DF91CF910C942207CF92DF92EF92E2
:1002C000FF920F931F93CF93DF936C017C0187E024
:1002D000E80EF11CD0E0C0E0062F10E0B8010C2EB3
:1002E00002C0759567950A94E2F76170F7018191F4
:1002F0007F010E94CD072196C430D10579F7C60150
:10030000DF91CF911F910F91FF90EF90DF90CF90F1
:100310000C944001CF92DF92EF92FF920F931F93C4
:10032000CF93DF936C017C0187E0E80EF11CD0E0F5
:10033000C0E0062F10E0B8010C2E02C0759567953D
:100340000A94E2F76170F70181917F010E94CD0765
:100350002196C830D10579F7C601DF91CF911F9161
:100360000F91FF90EF90DF90CF900C9440011F937E
:10037000CF93DF93EC01162F642F8C810E94CD0761
:100380008D818F3F19F060E00E94CD078F85612F2E
:1003900084FF06C0CE01DF91CF911F910C948A019A
:1003A00070E084E0759567958A95E1F7CE010E942B
:1003B0005D01612FCE01DF91CF911F910C945D0102
:1003C00040E00C94B70161E00E94E00180ED97E00D
:1003D0000C942207443008F043E0FC0123894217C3
:1003E00010F04FEF420FFC01E40FF11D2489620F62
:1003F00060680C94E001FC016089262F2460208B4A
:100400006C600C94E0010F931F93CF93DF93EC018A
:10041000423018F08F8588608F874B8B1C8A80E470
:100420008D8B6E8B605C6F8B222329F0413019F429
:100430008F8584608F8761E08C810E9491078D8118
:100440008F3F19F061E00E94910761E08E810E9468
:1004500091078E0198012C1B3D0B8F8584FD0DC0EB
:1004600084E090E00F5F1F4F281739074CF461E0DC
:10047000F80186810E949107EDCF88E090E0F2CFED
:1004800080E593EC0E94220760E08C810E94CD07FA
:1004900060E08E810E94CD078D818F3F19F060E072
:1004A0000E94CD076F8564FD33C063E0CE010E94DA
:1004B0005D0184E991E10E94220763E0CE010E9480
:1004C0005D0184E991E10E94220763E0CE010E9470
:1004D0005D0186E990E00E94220762E0CE010E9461
:1004E0005D016F856062CE010E94E00184E0888B2F
:1004F000CE010E94FB01CE010E94E30182E0898BC4
:1005000066E0CE01DF91CF911F910F910C94E00135
:100510006062CE010E94E00184E991E10E9422071D
:100520006F856062CE010E94E00186E990E00E9442
:1005300022076F856062CE010E94E001D2CFCF9288
:10054000EF920F93FC01138212828CE391E091836E
:10055000808364838FEF8583468327830087E186CA
:10056000C2861386148615861686178620E041E01B
:1005700060E1CF010F91EF90CF900C940302EF92C6
:10058000FF920F931F93CF93DF938C017A016770D3
:1005900088E0689FB00111246064C8010E94E001F6
:1005A000E701A8E0EA0EF11C6991D801ED91FC91F8
:1005B0000190F081E02DC8010995CE15DF05A1F766
:1005C000DF91CF911F910F91FF90EF90089541E03F
:1005D0000E94B70181E090E008951F920F920FB63C
:1005E0000F9211242F933F934F935F936F937F93B9
:1005F0008F939F93AF93BF93EF93FF9380915E028E
:100600008F5F80935E02E0915F0220915E028E2FE9
:1006100090E0FC01EE0FFF1FE80FF91FE05AFD4FBD
:100620008181E0915F0282131DC08E2F90E0FC015A
:10063000EE0FFF1FE80FF91FE05AFD4F82818093F4
:10064000B200FF91EF91BF91AF919F918F917F91F8
:100650006F915F914F913F912F910F900FBE0F902F
:100660001F90189520915E028E2F90E0FC01EE0FF6
:10067000FF1FE80FF91FE05AFD4F8181821708F72D
:10068000E0915F028E2F90E0FC01EE0FFF1FE80F5C
:10069000F91FE05AFD4F808185FF10C0E0915F0295
:1006A0008E2F90E0FC01EE0FFF1FE80FF91FE05ABC
:1006B000FD4F808160E08F710E94CD0780915F02C5
:1006C0008F5F80935F0210925E021092B200809161
:1006D0005F02882319F180915F028930F8F4E0917C
:1006E0005F028E2F90E0FC01EE0FFF1FE80FF91F55
:1006F000E05AFD4F808185FFA4CFE0915F028E2FED
:1007000090E0FC01EE0FFF1FE80FF91FE05AFD4FCC
:10071000808161E08F710E94CD0793CF80915F024D
:10072000893008F48ECF10925F028BCFFC0190913C
:100730005D02983028F49F5F90935D029083089546
:10074000108208951F93CF93DF93EC01162F8091B1
:100750005C02811122C0E0E6F2E088E792E03BE033
:1007600027E53483258333968E179F07D1F78EE3D1
:100770008093610210925F0210925E0210927000EC
:100780001092B00082E08093B1001092B20081E03C
:1007900087BB8093700080935C0288818823A1F0DE
:1007A00061E0812F0E949107E8818E2F90E0FC018B
:1007B000EE0FFF1FE80FF91FE05AFD4F1F71608118
:1007C000607E612B606260838881DF91CF911F9191
:1007D0000895DC01EC918FEF8E0F8830F8F4CB0197
:1007E0006B3C784014F08AEC98E08E3E22E0920751
:1007F00014F48EEE92E00897AC01440F452F441F8D
:10080000550B2E2F30E0F901EE0FFF1FE20FF31F03
:10081000E05AFD4F4183880F8095828308950F939E
:100820001F93CF93DF9300D0CDB7DEB78DB79EB7C0
:100830009A83898380917B0290917C02892BA9F411
:1008400089819A8190937C0280937B02F89483E55E
:1008500098E0892B11F00E94530878940F900F9024
:10086000DF91CF911F910F91089520917B023091DC
:100870007C0289819A812817390741F3F89484E42E
:1008800091E00E94A60403E518E001151105E9F3C3
:100890000E945308FACF20E044E064E182EA92E04B
:1008A0000E94030240E051E061E082EA92E00E948F
:1008B000BF0226E040E855E260E070E083EC92E0A1
:1008C0000E94F00860E671E083EC92E00E94280A42
:1008D00082EA92E00E94E30160E08FE00E949107CB
:1008E00060E08EE00E94910761E082E00E94910743
:1008F00061E083E00E94910760E082E00E94CD0702
:1009000060E083E00E94CD0765E070E081EA92E05C
:100910000E94A20366E070E080EA92E00E94A203D7
:100920006EEE72E081EA92E00E94E9036EEE72E000
:1009300080EA92E00C94E9030E942D070E944B0488
:1009400080E00E944B0A90E080E00895F894FC015A
:1009500001900020E9F73197AF01481B590BBC010A
:1009600083EC92E00E94E10978940895CF92DF929F
:10097000EF92FF92BC01990F880B990B0E944210D5
:1009800020E030EC4FE754E40E94980F20E030E084
:1009900040EA50E40E94F7106B017C012FE632E13F
:1009A00043E85AE30E94930F87FD35C02FEC37EFE1
:1009B0004FE950E4C701B6010E94F210181644F442
:1009C0009FECC92E97EFD92E9FE9E92E90E4F92EDE
:1009D000A701960160E070E080EA90E40E94260F93
:1009E000A70196010E94980F20E030E44CE955E4FD
:1009F0000E94F71022EC3FE245E95FEB0E94641190
:100A00002EE138E449E559E40E94F710FF90EF9099
:100A1000DF90CF9008958FE6C82E82E1D82E83E82C
:100A2000E82E8AE3F82ED4CF0F931F93CF93DF9352
:100A3000D62FC72F482F60E082EA92E00E94EA0199
:100A40000D2F1C2FC0E0F80161918F01662341F04A
:100A5000C43179F082EA92E00E941D0ACF5FF3CFA1
:100A6000C43139F060E282EA92E00E941D0ACF5F51
:100A7000F7CFDF91CF911F910F910895CF92DF9221
:100A8000EF92FF92CF938FE00E94FB076C018EE004
:100A90000E94FB077C01C6010E94B60460939C0281
:100AA00070939D0280939E0290939F02C7010E94C3
:100AB000B604609398027093990280939A0290937F
:100AC0009B0260919C0270919D0280919E02909188
:100AD0009F02209198023091990240919A02509180
:100AE0009B020E94270F20E030E040E05FE30E947D
:100AF000F7106B017C0120E030E048E453E40E94F1
:100B0000930F881F8827881F809396026091960212
:100B100082E00E94CD076091960283E00E94CD079B
:100B2000C1E020E030E04AEF53E4C701B6010E9483
:100B3000F21087FDC0E0C0939702809197026EEE9D
:100B400072E0882311F06AEC78E081EA92E00E947A
:100B5000E903809197026EEE72E0882311F06AEC4F
:100B600078E080EA92E0CF91FF90EF90DF90CF9015
:100B70000C94E9034F925F926F927F928F929F92B3
:100B8000AF92BF92CF92DF92EF92FF920F931F939B
:100B9000CF93DF93CDB7DEB7A0970FB6F894DEBF43
:100BA0000FBECDBF9091930281E08927809393027D
:100BB000913009F5809194028F5F80939402809127
:100BC00094028C3338F010929402809195028F5FDA
:100BD00080939502809195028C3338F010929502A3
:100BE000809136018F5F8093360180913601883184
:100BF00010F01092360180909C0290909D02A0907F
:100C00009E02B0909F02409098025090990260908E
:100C10009A0270909B026091980270919902809163
:100C20009A0290919B02C0909C02D0909D02E0900D
:100C30009E02F0909F020E940A107F936F93A3017F
:100C40009201C501B4010E94270F20E030E040E08E
:100C50005FE30E94F7100E940A107F936F93C70111
:100C6000B6010E940A107F936F938DE092E09F93EC
:100C70008F931F9280E28F938E010F5F1F4F1F9300
:100C80000F930E941113B80180E00E941405809117
:100C900097020FB6F894DEBF0FBECDBF811168C0BA
:100CA00089E092E09F938F9380E292E09F938F93ED
:100CB0001F9280E28F931F930F930E941113B8012C
:100CC00081E00E941405809196020FB6F894DEBF71
:100CD0000FBECDBF81114FC089E092E09F938F93EB
:100CE0008AE292E09F938F931F9280E2F82EFF9208
:100CF0001F930F930E941113B80182E00E94140504
:100D00002091940290919502809136011F922F9329
:100D10001F929F931F928F9384E392E09F938F93F0
:100D20001F92FF921F930F930E941113B80183E04B
:100D30000E9414050E94D50A0FB6F894DEBF0FBEBC
:100D4000CDBFA0960FB6F894DEBF0FBECDBFDF912A
:100D5000CF911F910F91FF90EF90DF90CF90BF90B8
:100D6000AF909F908F907F906F905F904F9008957D
:100D700086E092E097CF86E092E0B0CFCF92EF92FC
:100D80000F938DE0C82E9CE0E92E0BE02AE049E0AD
:100D900068E082EA92E00E949F0281EA92E00E946B
:100DA000960380EA92E00F91EF90CF900C94960317
:100DB0001F920F920FB60F9211242F933F938F9390
:100DC0009F93AF93BF938091BB029091BC02A0917F
:100DD000BD02B091BE023091BA0223E0230F2D373D
:100DE00058F50196A11DB11D2093BA028093BB0254
:100DF0009093BC02A093BD02B093BE028091BF024B
:100E00009091C002A091C102B091C2020196A11DB1
:100E1000B11D8093BF029093C002A093C102B09312
:100E2000C202BF91AF919F918F913F912F910F90EF
:100E30000FBE0F901F90189526E8230F0296A11D54
:100E4000B11DD2CF8230910538F0880F991F880FDD
:100E5000991F05970197F1F70895789484B58260FA
:100E600084BD84B5816084BD85B5826085BD85B54E
:100E7000816085BDEEE6F0E0808181608083E1E8FD
:100E8000F0E0108280818260808380818160808335
:100E9000E0E8F0E0808181608083E1EBF0E0808138
:100EA00084608083E0EBF0E0808181608083EAE70A
:100EB000F0E0808184608083808182608083808193
:100EC000816080838081806880831092C100089552
:100ED000833081F028F4813099F08230A9F00895B0
:100EE0008730A9F08830C9F08430B1F48091800057
:100EF0008F7D03C0809180008F778093800008955C
:100F000084B58F7784BD089584B58F7DFBCF8091A4
:100F1000B0008F778093B00008958091B0008F7DEE
:100F2000F9CFCF93DF9390E0FC01E250FF4F249183
:100F30008E5E9E4FFC0184918823C9F090E0880F5B
:100F4000991FFC01E05DFE4FA591B491FC01EA5DA3
:100F5000FE4FC591D49161110DC09FB7F8948C914B
:100F6000209582238C938881282328839FBFDF913B
:100F7000CF910895623051F49FB7F8943C91822F3D
:100F8000809583238C93E8812E2BEFCF8FB7F89435
:100F9000EC912E2B2C938FBFEACF1F93CF93DF932F
:100FA000282F30E0F901E651FF4F8491F901E2501A
:100FB000FF4FD491F901EE5EFE4FC491CC23A9F00E
:100FC000162F81110E946807EC2FF0E0EE0FFF1F33
:100FD000EA5DFE4FA591B4918FB7F894EC91111191
:100FE00008C0D095DE23DC938FBFDF91CF911F9196
:100FF0000895DE2BF8CF8E3008F08E502091370107
:1010000090E4299F900111248770822B80937C00AB
:1010100080917A00806480937A0080917A0086FDC6
:10102000FCCF80917800909179000895FC01918D1A
:10103000228D892F90E0805C9F4F821B91098F73D6
:1010400099270895FC01918D828D981731F0828D3A
:10105000E80FF11D858D90E008958FEF9FEF0895C3
:10106000FC01918D828D981761F0A28DAE0FBF2F7C
:10107000B11D5D968C91928D9F5F9F73928F90E0D2
:1010800008958FEF9FEF0895FC01538D448D252F18
:1010900030E0842F90E0821B930B541710F0CF9612
:1010A0000895019708958AEA99E0892B49F080E034
:1010B00090E0892B29F00E94AA0981110C9400006C
:1010C0000895FC01A48DA80FB92FB11DA35ABF4FDD
:1010D0002C91848D90E001968F739927848FA68937
:1010E000B7892C93A089B1898C91837080648C938B
:1010F000938D848D981306C00288F389E02D80813A
:101100008F7D80830895CF93DF93EC01888D8823B2
:10111000B9F0AA89BB89E889F9898C9185FD03C05A
:10112000808186FD0DC00FB607FCF7CF8C9185FF3F
:10113000F2CF808185FFEDCFCE010E946108E9CF1B
:10114000DF91CF910895EF92FF920F931F93CF936A
:10115000DF93EC0181E0888F9B8D8C8D98131AC0F2
:10116000E889F989808185FF15C09FB7F894EE89D9
:10117000FF896083E889F989808183708064808336
:101180009FBF81E090E0DF91CF911F910F91FF9081
:10119000EF900895F62E0B8D10E00F5F1F4F0F7329
:1011A0001127E02E8C8D8E110CC00FB607FCFACFE4
:1011B000E889F989808185FFF5CFCE010E94610819
:1011C000F1CFEB8DEC0FFD2FF11DE35AFF4FF082B5
:1011D0009FB7F8940B8FEA89FB8980818062CFCF1B
:1011E000CF92DF92EF92FF921F93CF93DF93EC01A8
:1011F0006A017B01122FE889F98982E08083C1149A
:1012000081EED806E104F104A1F060E079E08DE31D
:1012100090E0A70196010E94E9122150310941098D
:1012200051095695479537952795211580E138073F
:1012300098F0E889F989108260E874E88EE190E01E
:10124000A70196010E94E912215031094109510973
:101250005695479537952795EC85FD853083EE8526
:10126000FF852083188EEC89FD891083EA89FB892C
:10127000808180618083EA89FB89808188608083A6
:10128000EA89FB89808180688083EA89FB89808183
:101290008F7D8083DF91CF911F91FF90EF90DF9042
:1012A000CF9008951F920F920FB60F9211242F9393
:1012B0008F939F93EF93FF93E091D302F091D40229
:1012C0008081E091D902F091DA0282FD1BC0908109
:1012D0008091DC028F5F8F732091DD02821741F0D5
:1012E000E091DC02F0E0ED53FD4F958F8093DC023E
:1012F000FF91EF919F918F912F910F900FBE0F90C3
:101300001F9018958081F4CF1F920F920FB60F9205
:1013100011242F933F934F935F936F937F938F93FA
:101320009F93AF93BF93EF93FF9383EC92E00E9460
:101330006108FF91EF91BF91AF919F918F917F9144
:101340006F915F914F913F912F910F900FBE0F9032
:101350001F90189583EC92E00E94160821E0892BDB
:1013600009F420E0822F0895E3ECF2E01382128268
:1013700088EE93E0A0E0B0E084839583A683B783F2
:101380008EE492E09183808385EC90E0958784875A
:1013900084EC90E09787868780EC90E0918B808B3F
:1013A00081EC90E0938B828B82EC90E0958B848B28
:1013B00086EC90E0978B868B118E128E138E148E96
:1013C0000895AF92BF92CF92DF92EF92FF920F9368
:1013D0001F93CF93DF936C017B018B01040F151FCB
:1013E000EB015E01AE18BF08C017D10759F0699133
:1013F000D601ED91FC910190F081E02DC601099597
:10140000892B79F7C501DF91CF911F910F91FF9043
:10141000EF90DF90CF90BF90AF900895FB010190C7
:101420000020E9F73197AF01461B570BDC01ED9126
:10143000FC910280F381E02D0994DC01ED91FC9197
:101440000190F081E02D09946DE571E00C940E0A95
:101450000F931F93CF93DF938C01D0E0C0E0611511
:10146000710519F00E940E0AEC01C8010E94240ABD
:101470008C0F9D1FDF91CF911F910F91089568EE02
:1014800073E080E090E00C94060E809188019091CA
:1014900089010C94B20C7F928F929F92AF92BF926F
:1014A000CF92DF92EF92FF920F931F93CF93DF9330
:1014B00000D0CDB7DEB700918201109183019FB7B4
:1014C000F894D80118962D913C91232B99F09FBF49
:1014D00081E090E00F900F90DF91CF911F910F91DD
:1014E000FF90EF90DF90CF90BF90AF909F908F9044
:1014F0007F900895F82E8CED9DE09A8389830E9459
:101500003F0AC0908601D090870181E090E0F80109
:1015100091878087F286E0918A01F0918B0124E027
:10152000F29EC0011124E80FF91FA280B380F12CB4
:10153000E12C4F0186E0782EEA14FB04E1F4F80177
:1015400080859185019721F482E090E091878087E2
:10155000D80118968D919C91029751F4F601628101
:101560007381AB01C6010E941201C6010E94500B9B
:1015700090E080E0AFCFD401ED91FC917E9CC00162
:101580007F9C900D1124E80FF91FA081B181248167
:10159000358142815381BD0112968D919C910E94AB
:1015A000490DBFEFEB1AFB0AC7CFE0918201F09122
:1015B0008301A081B1818785882319F017868585ED
:1015C0008FBF8189882311F0118A78948FB7F8949E
:1015D00064EC7DE012968D919C910E943201DC01B9
:1015E0001496ED91FC9184E090E0938382830895BA
:1015F000EC01EC81FD81818124E030E033832283A2
:101600008F3F09F07894E985FA850995E091820188
:10161000F0918301108A8785882319F017868585C4
:101620008FBF8189882311F0118A78948FB7F8943D
:1016300064EC7DE08A819B810E9432010F931F93AD
:10164000CF93DF930091820110918301C0918401B7
:10165000D0918501F80180859185029751F08091A4
:10166000860190918701DF91CF911F910F910C948A
:10167000A90D209779F3FE010995ECCFDC011496B2
:10168000ED91FC91159790811D968C91981728F4F7
:101690009F5F908390E080E0089584E090E008955B
:1016A000DC011496ED91FC9115971B968C9181832A
:1016B000808181508083811103C01382128208953A
:1016C00081E090E0938382830895E0917601F09128
:1016D000770190E0880F991FE80FF91F60817181F1
:1016E000DB011496ED91FC9180818F5F808350E047
:1016F00040E084E791E00C94070CAB01FB01A4816E
:10170000B581E0918201F091830112968D919C91B7
:101710001397892B31F481E090E013969C938E937C
:101720001297A481B5818D919C91119795838483A3
:1017300011961C921E92BD01CF0102960C94F50EDB
:10174000AF92BF92CF92DF92EF92FF920F931F93CF
:10175000CF93DF93C0918201D0918301FE0101916B
:1017600011917F01F801C480D580FB0111830083B2
:10177000F60182819381049731F5B70182E891E007
:101780000E94FC0E5C01E880F9800E151F05B1F087
:10179000C8010E94500B8C819D81F501918380834B
:1017A000BD82AC82C701DF91CF911F910F91FF9055
:1017B000EF90DF90CF90BF90AF900895F6018081B9
:1017C00081508083E8CF6E817F81FB018081918190
:1017D0009F838E83F8018385F601818381E090E009
:1017E00093838283A801C7010E94F50EB70182E8A6
:1017F00091E00E94640E892B39F4EE81FF81E28032
:10180000F380F982E882CECFE880F980CBCFCF9306
:10181000DF93E0918201F0918301808191812681A3
:101820003781EC01AC81BD811296CD91DC9113978B
:10183000249731F4C2E0D0E01396DC93CE93129754
:101840007183608341155105B9F4A481B5814D912F
:101850005C9111975583448311961C921E92B78315
:10186000A6830680F781E02D738362833183208312
:10187000DF91CF910C94830D57834683F2CFAF92C3
:10188000BF92CF92DF92EF92FF920F931F93CF936D
:10189000DF93DC01AD90BC90E501E881F9812A81FC
:1018A0003B81DB01CD90DC90E6015B834A8381E0E4
:1018B00090E0B0E0A0E0309711F00097A9F4109705
:1018C00079F10D90BC91A02D6D937C93E601F98385
:1018D000E883DF91CF911F910F91FF90EF90DF9000
:1018E000CF90BF90AF90089500811181E801EA8008
:1018F000FB802E153F0558F44E155F0518F424178C
:10190000350758F0DF01E801E881F981D4CF2417C9
:10191000350718F04E155F05A8F790E080E0CBCFB3
:10192000D501D2CFCF93DF93DC011296ED91FC91DC
:1019300013970D90BC91A02D12962D913C91DF0133
:10194000A41BB50BA217B30730F0420F531FDF9152
:10195000CF910C943F0C41505109420F531F4E1B25
:101960005F0BF5CFAF92BF92CF92DF92EF92FF92D3
:101970000F931F93CF93DF93DC01ED90FC901197B1
:10198000F7012281338112964D915C91241735071E
:1019900008F46EC01382128230E020E0F701C081AB
:1019A000D181209709F459C0A881B98112964D912F
:1019B0005C914217530709F050C0DE0103E010E0CC
:1019C0002D913C91D90115961C930E9314970D906F
:1019D000BC91A02D109749F06D917C911197FB015E
:1019E000628173814617570759F38C01F9011182FF
:1019F0001082F701B183A08382E0E82EF12CE88108
:101A0000F981A080B1808A859B8582309105A9F1FA
:101A100083309105B9F1892B61F4CE80DF80C60156
:101A20000E943E0B892B29F4B60184E791E00E94C5
:101A30007D0BE881F98184819581039759F4468172
:101A400057814115510511F1F582E482BE01C801AB
:101A50000E94920CE501209791F6DF91CF911F91A2
:101A60000F91FF90EF90DF90CF90BF90AF900895CF
:101A70002F5F3F4F3383228391CF888599850E94C2
:101A8000B20CD7CFEC81FD810995D3CF158214829A
:101A9000E1CFCF93DF93DB01ED91FC91A481B58180
:101AA000A230B10568F537832683119711F5EC0153
:101AB0002A813B81A881B98112968D919C91B901AF
:101AC000641B750B6817790768F0480F591F53831B
:101AD000428384E090E09583848390E080E0DF910E
:101AE000CF91089541505109480F591F421B530B84
:101AF000EECF22E030E0358324830E94920CEDCFBC
:101B000087E090E0ECCFFB01DC0112964D915C91F7
:101B100062817381A481B58112968D919C91029707
:101B200019F4CF010C94CA00CF010C941201CB011F
:101B3000DB0112966D917C9113971496ED91FC91B7
:101B4000228133812230310511F40C94EA000C9487
:101B50000A01DC0112966D917C911397ED91FC9135
:101B600040815181DB01ED91FC912289338921155E
:101B7000310519F04217530729F4DB01ED93FC936B
:101B80000C94EA00F901F1CFCF93DF9300D0CDB7E9
:101B9000DEB7BE016F5F7F4F84E791E00E94A00B2C
:101BA000BC0189819A810E94970D0F900F90DF915F
:101BB000CF910895F894FFCFE4EB08958F939F930E
:101BC00080E00E94E60D9F918F9118951F920F92D1
:101BD0000FB60F9211242F933F934F935F936F9300
:101BE0007F93AF93BF93EF93FF930E94650BFF9199
:101BF000EF91BF91AF917F916F915F914F913F9125
:101C00002F910F900FBE0F901F900895109281009A
:101C10001092800010928200109285001092840031
:101C2000611520E1720781059105A0F4E4E0660FDB
:101C3000771FEA95E1F76150710981E092E096BB68
:101C400090936F0070938900609388008860809300
:101C500081000895611520E872078105910530F42F
:101C6000660F771F6150710982E0E8CF6C3F2FEF5C
:101C7000720723E08207910558F442E09695879514
:101C8000779567954A95D1F76150710983E0D6CF72
:101C90006115710520E18207910558F434E09695AD
:101CA0008795779567953A95D1F76150710984E0EA
:101CB000C5CF26E096958795779567952A95D1F7B4
:101CC0006150710985E0BACF0F931F93CF93DF93D3
:101CD000EC01A881B981EB01E881F9811696CD91DB
:101CE000DC9117972097C1F18A819B81309709F485
:101CF0003FC0EC010C811D8122813381E9014C81BF
:101D00005D81E8013981EA012981321788F522E0F5
:101D100030E0E8013B832A8320813181EB01398364
:101D20002883C281D3812C813D8116964D915C918F
:101D30001797518340831796FC93EE931697CD9394
:101D4000DC934C85F9015181541708F44183DF91EC
:101D5000CF911F910F910895309751F0EC018C8134
:101D60009D81EC014C815D8122E030E0EA01D2CF1F
:101D700090E080E0ECCFCF93DF93DB011296ED9102
:101D8000FC9141155105A1F02385DC01ED91FC91F9
:101D9000B0E0A0E0309789F4109709F16D937C933F
:101DA00090E080E0DB01ED93FC93DF91CF9108950B
:101DB0000480F581E02D2181E8CFC281D3814115D6
:101DC000510541F03B85321738F3DF010190F08176
:101DD000E02DE0CF0C80DD81C02D3981F4CFDC0116
:101DE0006D937C9381E090E0DDCFFB0153834283D0
:101DF00041E050E00C94BB0EEF92FF920F931F93C3
:101E0000CF93DF938C01FC01C081D181EE80FF80F4
:101E1000F701808191819F838E83C8010E94640EA7
:101E2000892B41F4EE81FF81309761F082819381AB
:101E300099838883C701DF91CF911F910F91FF9004
:101E4000EF900895F80184819581F2CF5058BB2717
:101E5000AA270E943E0F0C94B8100E94AA1038F0D6
:101E60000E94B11020F039F49F3F19F426F40C942D
:101E7000A7100EF4E095E7FB0C94A110E92F0E9447
:101E8000C91058F3BA17620773078407950720F043
:101E900079F4A6F50C94EB100EF4E0950B2EBA2F06
:101EA000A02D0B01B90190010C01CA01A001112460
:101EB000FF27591B99F0593F50F4503E68F11A160C
:101EC000F040A22F232F342F4427585FF3CF46959D
:101ED00037952795A795F0405395C9F77EF41F16BF
:101EE000BA0B620B730B840BBAF09150A1F0FF0F89
:101EF000BB1F661F771F881FC2F70EC0BA0F621F75
:101F0000731F841F48F4879577956795B795F79564
:101F10009E3F08F0B0CF9395880F08F09927EE0FF9
:101F20009795879508950E947D1008F481E00895A3
:101F30000E94AC0F0C94B8100E94B11058F00E948F
:101F4000AA1040F029F45F3F29F00C94A110511120
:101F50000C94EC100C94A7100E94C91068F39923FC
:101F6000B1F3552391F3951B550BBB27AA27621795
:101F70007307840738F09F5F5F4F220F331F441FA2
:101F8000AA1FA9F335D00E2E3AF0E0E832D09150D6
:101F90005040E695001CCAF72BD0FE2F29D0660FC3
:101FA000771F881FBB1F261737074807AB07B0E806
:101FB00009F0BB0B802DBF01FF2793585F4F3AF00C
:101FC0009E3F510578F00C94A1100C94EC105F3FEB
:101FD000E4F3983ED4F3869577956795B795F79592
:101FE0009F5FC9F7880F911D9695879597F908957A
:101FF000E1E0660F771F881FBB1F62177307840716
:10200000BA0720F0621B730B840BBA0BEE1F88F724
:10201000E09508950E9411106894B1110C94EC1091
:1020200008950E94D11088F09F5798F0B92F9927F2
:10203000B751B0F0E1F0660F771F881F991F1AF0B3
:10204000BA95C9F714C0B13091F00E94EB10B1E01D
:1020500008950C94EB10672F782F8827B85F39F01C
:10206000B93FCCF3869577956795B395D9F73EF44C
:1020700090958095709561957F4F8F4F9F4F0895F4
:10208000E89409C097FB3EF4909580957095619512
:102090007F4F8F4F9F4F9923A9F0F92F96E9BB27C8
:1020A0009395F695879577956795B795F111F8CF44
:1020B000FAF4BB0F11F460FF1BC06F5F7F4F8F4FAF
:1020C0009F4F16C0882311F096E911C0772321F0A5
:1020D0009EE8872F762F05C0662371F096E8862F3D
:1020E00070E060E02AF09A95660F771F881FDAF794
:1020F000880F9695879597F90895990F0008550FC1
:10210000AA0BE0E8FEEF16161706E807F907C0F07D
:1021100012161306E407F50798F0621B730B840B85
:10212000950B39F40A2661F0232B242B252B21F45F
:1021300008950A2609F4A140A6958FEF811D811DFF
:10214000089597F99F6780E870E060E008959FEF39
:1021500080EC089500240A9416161706180609063E
:10216000089500240A94121613061406050608950D
:10217000092E0394000C11F4882352F0BB0F40F495
:10218000BF2B11F460FF04C06F5F7F4F8F4F9F4FD5
:10219000089557FD9058440F551F59F05F3F71F057
:1021A0004795880F97FB991F61F09F3F79F08795BE
:1021B0000895121613061406551FF2CF4695F1DF47
:1021C00008C0161617061806991FF1CF86957105D7
:1021D000610508940895E894BB2766277727CB010B
:1021E00097F908950E947D1008F48FEF08950E94DA
:1021F0000A110C94B8100E94AA1038F00E94B11075
:1022000020F0952311F00C94A1100C94A710112428
:102210000C94EC100E94C91070F3959FC1F3950FB8
:1022200050E0551F629FF001729FBB27F00DB11D5A
:10223000639FAA27F00DB11DAA1F649F6627B00DEA
:10224000A11D661F829F2227B00DA11D621F739FD3
:10225000B00DA11D621F839FA00D611D221F749FE1
:102260003327A00D611D231F849F600D211D822F28
:10227000762F6A2F11249F5750409AF0F1F088234F
:102280004AF0EE0FFF1FBB1F661F771F881F91507C
:102290005040A9F79E3F510580F00C94A1100C947A
:1022A000EC105F3FE4F3983ED4F3869577956795FD
:1022B000B795F795E7959F5FC1F7FE2B880F911DA6
:1022C0009695879597F90895FA01EE0FFF1F3096BE
:1022D00021053105A1F16115710561F48038BFE375
:1022E0009B0749F168949038810561F08038BFEF11
:1022F0009B0741F099234AF5FF3FE1053105210590
:1023000019F1E8940894E795D901AA2329F4AB2F91
:10231000BE2FF85FD0F310C0FF5F70F4A695E0F712
:10232000F73950F019F0FF3A38F49F779F930DD0AA
:102330000F9007FC9058089546F00C94A71060E0A9
:1023400070E080E89FE308954FE79F775F934F9396
:102350003F932F930E945F122F913F914F915F9176
:102360000E94F7100C94BC1129F416F00C94A110E3
:102370000C94EB100C94A7100E94D110A8F396387F
:10238000A0F707F80F92E8942BE33AEA48EB5FE7EF
:102390000E940D110F920F920F924DB75EB70F92E0
:1023A0000E94A712E8E6F0E00E94EE114F915F91C3
:1023B000EF91FF91E595EE1FFF1F49F0FE57E06892
:1023C0004427EE0F441FFA95E1F74195550B0E9403
:1023D00021120F9007FE0C9415120895DF93CF93EE
:1023E0001F930F93FF92EF92DF927B018C01689411
:1023F00006C0DA2EEF010E940A11FE01E894A591B1
:102400002591359145915591A6F3EF010E943E0F1C
:10241000FE019701A801DA9469F7DF90EF90FF9031
:102420000F911F91CF91DF9108959B01AC0160E066
:1024300070E080E89FE30C94980F0C94A1100C942A
:10244000DB120E94D110D8F39923C9F3940F511DC8
:10245000A3F39150504094F059F0882332F0660F66
:10246000771F881F91505040C1F79E3F51052CF7B0
:10247000880F911D9695879597F908955F3FACF069
:10248000983E9CF0BB27869577956795B79508F49D
:10249000B1609395C1F7BB0F58F711F460FFE8CF17
:1024A0006F5F7F4F8F4F9F4FE3CF0C94EC1016F070
:1024B0000C94DB120C94A71068940C94A1100E9449
:1024C000D110A8F39923C1F3AEF3DF93CF931F93F9
:1024D0000F93FF92C92FDD2788232AF02197660FDB
:1024E000771F881FDAF720E030E040E85FEB9FE3DA
:1024F000883920F0803E38F021968F770E94270F90
:10250000E0E9F0E004C00E94270FEDEBF0E00E944C
:10251000EE118B01BE01EC01FB2E6F577109759511
:10252000771F880B990B0E94421028E132E741E3A4
:102530005FE30E940A11AF2D9801AE01FF900F9149
:102540001F91CF91DF910E943E0F0C94B810FA01B9
:10255000DC01AA0FBB1F9B01AC01BF5728F4222747
:1025600033274427507820C0B75190F4AB2F002474
:10257000469537952795011CA395D2F3002071F05D
:10258000220F331F441FB395DAF30ED00C94260F9D
:1025900061307105A0E88A07B94630F49B01AC01AF
:1025A0006627772788279078309621F0208331831B
:1025B0004283538308959F3F31F0915020F48795D3
:1025C00077956795B795880F911D9695879597F99B
:1025D0000895A1E21A2EAA1BBB1BFD010DC0AA1F64
:1025E000BB1FEE1FFF1FA217B307E407F50720F07C
:1025F000A21BB30BE40BF50B661F771F881F991FF7
:102600001A9469F760957095809590959B01AC013F
:10261000BD01CF010895EE0FFF1F0590F491E02D4D
:102620000994AEE0B0E0E7E1F3E10C94CD150D893B
:102630001E898F89988D26E02C831A83098397FF42
:1026400002C080E090E801979E838D83AE01455ED5
:102650005F4F698D7A8DCE0101960E9441134D81A5
:102660005E8157FD0AC02F813885421753070CF44D
:102670009A01020F131FF80110822E96E4E00C94C9
:10268000E915ABE0B0E0E7E4F3E10C94BF157C01A1
:102690003B018A01FC0117821682838181FFC8C138
:1026A000CE0101965C01F7019381F30193FD8591C1
:1026B00093FF81913F01882309F453C1853239F496
:1026C00093FD859193FF81913F01853229F4B701F4
:1026D00090E00E943115E7CF912C212C312CFFE1A5
:1026E000F31538F08B3211F190F4803209F1833216
:1026F00029F137FC3CC020ED280F2A3050F536FE7A
:1027000020C08AE0989E200D1124922E06C08D32A2
:1027100091F0803371F7689430F8F30193FD85915F
:1027200093FF81913F018111DACF21C0689431F884
:10273000689432F8F2CF689433F8EFCF689434F8A5
:10274000ECCFEAE02E9E200D1124222E689435F85D
:10275000E4CF8E3229F436FC04C1689436F8DDCF1C
:102760008C3619F4689437F8D8CF8836B1F2982FA0
:102770009F7D95549330E0F08336A1F18337C1F10A
:10278000833509F063C02801F2E04F0E511CF801B7
:10279000C080D180692D70E036FC02C06FEF7FEF02
:1027A000C6010E941B154C01689437F882010AC0CB
:1027B0000C5F1F4FFFE3F98388248394912C6501FC
:1027C000E89437F833FE2DC0522C8114910471F532
:1027D000552009F468CFB70180E290E00E943115DE
:1027E0005A94F6CFF801808189830E5F1F4FE4CFA2
:1027F0002801F2E04F0E511CF801C080D180692DF4
:1028000070E036FC02C06FEF7FEFC6010E94261514
:102810004C018201D5CFB70180E290E00E943115D2
:102820002A942814190409F0B0F7CECFF60137FC2A
:10283000859137FE81916F01B70190E00E943115BB
:1028400051105A94F1E08F1A9108BFCF843619F0D5
:10285000893609F077C0F80137FE6BC0608171815D
:10286000828193810C5F1F4FF32DFF763F2E97FFE0
:1028700009C090958095709561957F4F8F4F9F4FC0
:10288000689437F82AE030E0A5010E946115C82E4F
:10289000CA188C2C432C36FE0CC0E89440F8C9149E
:1028A00040F434FE05C032FC03C0F32DFE7E4F2EF3
:1028B000892C44FE95C0FE01EC0DF11D8081803312
:1028C00009F087C0242D297E422E842D8870582E31
:1028D00043FC95C040FE8FC09C2C821418F42C0C35
:1028E000922C981844FE91C0B70180E390E00E94BA
:1028F000311542FE09C088E790E041FE02C088E53C
:1029000090E0B7010E943115C91408F48AC0CA9436
:10291000D12C9FEFC91AD90ACA0CDB1CF60182918F
:102920006F01B70190E00E943115AC14BD04B1F7FE
:102930004FCF60817181072E000C880B990B0E5FC1
:102940001F4F92CFD32CE894D4F82AE030E085379B
:1029500039F1232D297FD22E8F3601F148F48835A5
:10296000A9F0F701868197812B96E2E10C94DB15A3
:10297000803749F08837A9F7D4FE02C06894D2F8AE
:1029800020E130E00DC06894D4F8F6CF34FE03C0E7
:10299000822F8660D82E20E132E002C028E030E0AD
:1029A000F801D7FE0FC060817181828193810C5F35
:1029B0001F4FA5010E946115C82ECA183D2CE8942E
:1029C00037F867CF6081718190E080E00E5F1F4F24
:1029D000F0CF42FC02C0839478CF8394839475CF68
:1029E000842D867809F471CFF6CFB70180E290E0AC
:1029F0000E94311583948214C0F3512C73CF522C52
:102A00005818821408F46ECFF8CF842D867809F414
:102A10007BCF8BE241FE80E247FC8DE2B70190E084
:102A200071CFB70180E390E00E9431159A946CCF8A
:102A30008FEF9FEF99CFFC0105906150704001101E
:102A4000D8F7809590958E0F9F1F0895FC016150D7
:102A5000704001900110D8F7809590958E0F9F1FC0
:102A600008950F931F93CF93DF93182F092FEB0136
:102A70008B8181FD09C01FEF0FEF812F902FDF9118
:102A8000CF911F910F91089582FF14C02E813F8135
:102A90008C819D81281739073CF4E881F981CF01A9
:102AA00001969983888310838E819F8101969F83ED
:102AB0008E83E3CFE885F985812F0995892BA1F3D2
:102AC000DACFFA01AA27283051F1203181F1E894B8
:102AD0006F936E7F6E5F7F4F8F4F9F4FAF4FB1E011
:102AE0003ED0B4E03CD0670F781F891F9A1FA11D0C
:102AF000680F791F8A1F911DA11D6A0F711D811D0D
:102B0000911DA11D20D009F468943F912AE0269FD1
:102B100011243019305D3193DEF6CF010895462F30
:102B20004770405D4193B3E00FD0C9F7F6CF462F11
:102B30004F70405D4A3318F0495D31FD405241937A
:102B400002D0A9F7EACFB4E0A69597958795779537
:102B50006795BA95C9F700976105710508959B01BE
:102B6000AC010A2E06945795479537952795BA9547
:102B7000C9F7620F731F841F951FA01D08952F9220
:102B80003F924F925F926F927F928F929F92AF92FD
:102B9000BF92CF92DF92EF92FF920F931F93CF934A
:102BA000DF93CDB7DEB7CA1BDB0B0FB6F894DEBFE1
:102BB0000FBECDBF09942A88398848885F846E8407
:102BC0007D848C849B84AA84B984C884DF80EE8051
:102BD000FD800C811B81AA81B981CE0FD11D0FB65A
:102BE000F894DEBF0FBECDBFED010895F894FFCF7E
:102BF00000000A1F1F0E0400F40100001A0100006B
:102C00000000FF000000000000001E010000220183
:102C10000000000000000080000000020000000131
:102C20000000010004000C0100000000E702E109BF
:102C30003C013F0154657374204661696C656421F1
:102C400021212C206C696E653A313430200D0A0048
:102C500048656C6C6F204F53454B2D41726475690C
:102C60006E6F21006003C2010400BA0101009E01E1
:102C7000020008010F04F401BC018E010100920161
:102C80000200A2010100C800AE010100F401A2018E
:102C9000AE017D02BC010000D801000000008502E9
:102CA000BC010000E60100000000BC018D02FFFF36
:102CB0000100CA01D801E601F401020291022601D5
:102CC000000200450A80FF01020291022A01010070
:102CD000003E05020201020291022E01020000BA2A
:102CE000050101010202910232010303001E0B00E3
:102CF0000001000000004F4E004F4646004C555862
:102D00003A25336457202533644120253364450038
:102D100053686164653A202573004C696768743AAA
:102D200020257300436C6F636B3A20253032753A6F
:102D3000253032753A253032750000000000A308B6
:0C2D4000E1094408830816083008220846
:00000001FF
