:100000000C94A4000C94CC000C94CC000C94CC0068
:100010000C94CC000C94CC000C94CC000C94CC0030
:100020000C94CC000C94F1020C94CC000C947A0F3C
:100030000C94CC000C94CC000C94CC000C94CC0010
:100040000C947B070C94CC000C942A0A0C945C0A48
:100050000C94CC000C94CC000C94CC000C94CC00F0
:100060000C94CC000C94CC0007634236B79BD8A705
:100070001A39685618AEBAAB558C1D3CB7CC5763CD
:10008000BD6DEDFD753EF6177231BF000000803F7B
:1000900008000000BE922449123EABAAAA2ABECD97
:1000A000CCCC4C3E00000080BEABAAAAAA3E000009
:1000B0000000BF000000803F000000000008417801
:1000C000D3BB4387D1133D190E3CC3BD4282AD2B38
:1000D0003E68EC8276BED98FE1A93E4C80EFFFBE30
:1000E00001C4FF7F3F000000000000000008000284
:1000F00001000003040700000000000000000102EE
:1001000004081020408001020408102001020408A5
:100110001020040404040404040402020202020283
:10012000030303030303000000002300260029004B
:1001300000000000250028002B0000000000240023
:1001400027002A0061078C0A11241FBECFEFD8E0D8
:10015000DEBFCDBF12E0A0E0B1E0E8E7FFE202C001
:1001600005900D92A439B107D9F723E0A4E9B2E0D4
:1001700001C01D92AE39B207E1F710E0C4EAD0E049
:1001800004C02197FE010E94CF14C23AD107C9F7DB
:100190000E94A8040C94BA170C94760F2F923F92E9
:1001A0004F925F926F927F928F929F92AF92BF9287
:1001B000CF92DF92EF92FF920F931F93CF93DF9333
:1001C000E42FF52F419050804F925F92E42FF52F4E
:1001D0004DB65EB6419250820C94EE00E62FF72F9A
:1001E000419050804DBE5EBE5F904F90E62FF72F3E
:1001F00041925082DF91CF911F910F91FF90EF902C
:10020000DF90CF90BF90AF909F908F907F906F9036
:100210005F904F903F902F900C944A0CE62FF72F51
:10022000419150814DBF5EBF0C94530C2F923F9271
:100230004F925F926F927F928F929F92AF92BF92F6
:10024000CF92DF92EF92FF920F931F93CF93DF93A2
:10025000E42FF52F419050804F925F92E42FF52FBD
:100260004DB65EB6419250820C940E01E82FF92FE4
:10027000419150814DBF5EBFE62FF72F09940000DA
:1002800090E080E008950895CF93DF93EC0160E063
:100290008E810E947C0881E090E00E94D10761E09D
:1002A0008E810E947C0881E090E00E94D10760E08E
:1002B0008E810E947C0884E690E0DF91CF910C94BF
:1002C000D107CF92DF92EF92FF920F931F93CF93BC
:1002D000DF936C017C0187E0E80EF11CD0E0C0E008
:1002E000062F10E0B8010C2E02C0759567950A9490
:1002F000E2F76170F70181917F010E947C082196ED
:10030000C430D10579F7C601DF91CF911F910F91CC
:10031000FF90EF90DF90CF900C944401CF92DF924A
:10032000EF92FF920F931F93CF93DF936C017C01A9
:1003300087E0E80EF11CD0E0C0E0062F10E0B80125
:100340000C2E02C0759567950A94E2F76170F7016B
:1003500081917F010E947C082196C830D10579F7F0
:10036000C601DF91CF911F910F91FF90EF90DF9029
:10037000CF900C9444011F93CF93DF93EC01162F81
:10038000642F8C810E947C088D818F3F19F060E082
:100390000E947C088F85612F84FF06C0CE01DF910B
:1003A000CF911F910C948E0170E084E07595679554
:1003B0008A95E1F7CE010E946101612FCE01DF91A4
:1003C000CF911F910C94610140E00C94BB0161E05E
:1003D0000E94E40180ED97E00C94D107443008F0CE
:1003E00043E0FC012389421710F04FEF420FFC015C
:1003F000E40FF11D2489620F60680C94E401FC0194
:100400006089262F2460208B6C600C94E4010F938C
:100410001F93CF93DF93EC01423018F08F858860F3
:100420008F874B8B1C8A80E48D8B6E8B605C6F8B0F
:10043000222329F0413019F48F8584608F8761E091
:100440008C810E9440088D818F3F19F061E00E94ED
:10045000400861E08E810E9440088E0198012C1BAB
:100460003D0B8F8584FD0DC084E090E00F5F1F4F32
:10047000281739074CF461E0F80186810E94400892
:10048000EDCF88E090E0F2CF80E593EC0E94D107B9
:1004900060E08C810E947C0860E08E810E947C0874
:1004A0008D818F3F19F060E00E947C086F8564FDAC
:1004B00033C063E0CE010E94610184E991E10E94B2
:1004C000D10763E0CE010E94610184E991E10E94BD
:1004D000D10763E0CE010E94610186E990E00E94AD
:1004E000D10762E0CE010E9461016F856062CE019A
:1004F0000E94E40184E0888BCE010E94FF01CE01BE
:100500000E94E70182E0898B66E0CE01DF91CF9106
:100510001F910F910C94E4016062CE010E94E401EE
:1005200084E991E10E94D1076F856062CE010E944B
:10053000E40186E990E00E94D1076F856062CE01F8
:100540000E94E401D2CFCF92EF920F93FC0113826D
:10055000128280E591E09183808364838FEF8583AD
:10056000468327830087E186C28613861486158614
:100570001686178620E041E060E1CF010F91EF90F1
:10058000CF900C940702EF92FF920F931F93CF939B
:10059000DF938C017A01677088E0689FB0011124B5
:1005A0006064C8010E94E401E701A8E0EA0EF11CC2
:1005B0006991D801ED91FC910190F081E02DC80185
:1005C0000995CE15DF05A1F7DF91CF911F910F910E
:1005D000FF90EF90089541E00E94BB0181E090E020
:1005E00008951F920F920FB60F9211242F933F93ED
:1005F0004F935F936F937F938F939F93AF93BF932B
:10060000EF93FF93809196028F5F80939602E09123
:100610009702209196028E2F90E0FC01EE0FFF1FB3
:10062000E80FF91FE856FD4F8181E0919702821390
:100630001DC08E2F90E0FC01EE0FFF1FE80FF91F89
:10064000E856FD4F82818093B200FF91EF91BF91F8
:10065000AF919F918F917F916F915F914F913F915A
:100660002F910F900FBE0F901F901895209196021A
:100670008E2F90E0FC01EE0FFF1FE80FF91FE856E8
:10068000FD4F8181821708F7E09197028E2F90E04D
:10069000FC01EE0FFF1FE80FF91FE856FD4F8081A8
:1006A00085FF10C0E09197028E2F90E0FC01EE0FC5
:1006B000FF1FE80FF91FE856FD4F808160E08F7142
:1006C0000E947C08809197028F5F8093970210921E
:1006D00096021092B20080919702882319F18091BE
:1006E00097028930F8F4E09197028E2F90E0FC0198
:1006F000EE0FFF1FE80FF91FE856FD4F808185FFC1
:10070000A4CFE09197028E2F90E0FC01EE0FFF1F27
:10071000E80FF91FE856FD4F808161E08F710E945C
:100720007C0893CF80919702893008F48ECF109285
:1007300097028BCFFC0190919502983028F49F5F2F
:100740009093950290830895108208951F93CF93FC
:10075000DF93EC01162F80919402811122C0E8E909
:10076000F2E080EB92E03BE027E53483258333968B
:100770008E179F07D1F78EE380939902109297020C
:1007800010929602109270001092B00082E0809356
:10079000B1001092B20081E087BB8093700080931B
:1007A000940288818823A1F061E0812F0E94400893
:1007B000E8818E2F90E0FC01EE0FFF1FE80FF91F7C
:1007C000E856FD4F1F716081607E612B606260831F
:1007D0008881DF91CF911F910895DC01EC918FEF1B
:1007E0008E0F8830F8F4CB016B3C784014F08AEC23
:1007F00098E08E3E22E0920714F48EEE92E0089785
:10080000AC01440F452F441F550B2E2F30E0F9014A
:10081000EE0FFF1FE20FF31FE856FD4F4183880FD5
:100820008095828308950F931F93CF93DF9300D019
:10083000CDB7DEB78DB79EB79A8389838091B30217
:100840009091B402892BA9F489819A819093B40282
:100850008093B302F8948BE299E0892B11F00E9407
:100860002B0978940F900F90DF91CF911F910F91EA
:1008700008952091B3023091B40289819A8128179A
:10088000390741F3F89488E591E00E94B2040BE245
:1008900019E001151105E9F30E942B09FACF20E0B8
:1008A00044E064E18FED92E00E94070240E051E0F5
:1008B00061E08FED92E00E94C30226E040E855E23D
:1008C00060E070E080E093E00E94C80963E771E0B7
:1008D00080E093E00E94000B8FED92E00E94E70120
:1008E00060E08FE00E94400860E08EE00E944008D7
:1008F00061E082E00E94400861E083E00E944008DD
:1009000060E082E00E947C0860E083E00E947C0856
:1009100065E070E08EED92E00E94A60366E070E074
:100920008DED92E00E94A6036EEE72E08EED92E0F5
:100930000E94ED036EEE72E08DED92E00E94ED03F9
:1009400062E080E10E94400862E081E10C9440088E
:100950000E94DC070E944F0480E00E94230B90E07D
:1009600080E00895F894FC0101900020E9F73197A8
:10097000AF01481B590BBC0180E093E00E94B90A0B
:100980007894089550914A012091D2024091D10269
:1009900030E06CE3569F200D311D1124820F931F10
:1009A00097FF03C080569A4FFBCF803A25E092070D
:1009B0001CF0805A9540F9CF6CE370E00E948514DA
:1009C00060934A018093D2024093D10208950F931D
:1009D0001F93CF93DF93CEE3D1E0803111F4C4E4D1
:1009E000D1E00E94AA089981981739F089830E9462
:1009F000C5076A837B838C839D830E94C5070A8118
:100A00001B812C813D81601B710B820B930B683223
:100A100071058105910538F099818881891719F050
:100A2000988381E0911180E0DF91CF911F910F9128
:100A30000895CF92DF92EF92FF92BC01990F880B3D
:100A4000990B0E94DE1120E030EC4FE754E40E9445
:100A5000341120E030E040EA50E40E9493126B0130
:100A60007C012FE632E143E85AE30E942F1187FD13
:100A700035C02FEC37EF4FE950E4C701B6010E94B3
:100A80008E12181644F49FECC92E97EFD92E9FE9C9
:100A9000E92E90E4F92EA701960160E070E080EA6B
:100AA00090E40E94C210A70196010E94341120E038
:100AB00030E44CE955E40E94931222EC3FE245E910
:100AC0005FEB0E9400132EE138E449E559E40E94EF
:100AD0009312FF90EF90DF90CF9008958FE6C82E8D
:100AE00082E1D82E83E8E82E8AE3F82ED4CF0F9344
:100AF0001F93CF93DF93D62FC72F482F60E08FED42
:100B000092E00E94EE010D2F1C2FC0E0F8016191D0
:100B10008F01662341F0C43179F08FED92E00E949D
:100B2000F50ACF5FF3CFC43139F060E28FED92E088
:100B30000E94F50ACF5FF7CFDF91CF911F910F9100
:100B40000895CF92DF92EF92FF92CF938FE00E94B1
:100B5000D3086C018EE00E94D3087C0180E00E94E3
:100B6000C70B80E10E94E704882351F08EE190E0FA
:100B70000E94C20462E272E080E093E00E94000BF7
:100B800081E10E94E704882351F082EE9FEF0E94EA
:100B9000C2046FE272E080E093E00E94000BC601A5
:100BA0000E9419056093D9027093DA028093DB02E8
:100BB0009093DC02C7010E9419056093D5027093DF
:100BC000D6028093D7029093D8026091D902709197
:100BD000DA028091DB029091DC022091D502309103
:100BE000D6024091D7025091D8020E94C31020E053
:100BF00030E040E05FE30E9493126B017C01809142
:100C0000D1028091D20220914A0190E0825C914011
:100C10003CE3239F800D911D1124C1E08439924053
:100C200058F420E030E048E453E4C701B6010E94E4
:100C30002F1118160CF4C0E0C093D3026091D302B8
:100C400082E00E947C086091D30283E00E947C08CD
:100C5000C1E020E030E04AEF53E4C701B6010E9452
:100C60008E1287FDC0E0C093D4028091D4026EEE54
:100C700072E0882311F06AEC78E08EED92E00E9439
:100C8000ED038091D4026EEE72E0882311F06AECDD
:100C900078E08DED92E00E94ED0380E00E94040C6C
:100CA000CF91FF90EF90DF90CF900C94AD0B4F92CF
:100CB0005F926F927F928F929F92AF92BF92CF92EC
:100CC000DF92EF92FF920F931F93CF93DF93CDB7F5
:100CD000DEB7A0970FB6F894DEBF0FBECDBF80E0A1
:100CE0000E94C70B9091D00281E089278093D002A7
:100CF000913009F58091D1028F5F8093D10280916C
:100D0000D1028C3338F01092D1028091D2028F5FE1
:100D10008093D2028091D2028C3338F01092D202AA
:100D200080914A018F5F80934A0180914A01883106
:100D300010F010924A018090D9029090DA02A090AF
:100D4000DB02B090DC024090D5025090D602609059
:100D5000D7027090D8026091D5027091D60280912E
:100D6000D7029091D802C090D902D090DA02E090D8
:100D7000DB02F090DC020E94A6117F936F93A30127
:100D80009201C501B4010E94C31020E030E040E0B0
:100D90005FE30E9493120E94A6117F936F93C70195
:100DA000B6010E94A6117F936F9384E492E09F9313
:100DB0008F931F9280E28F938E010F5F1F4F1F93BF
:100DC0000F930E94D514B80180E00E9477058091AE
:100DD000D4020FB6F894DEBF0FBECDBF81116BC039
:100DE00080E492E09F938F9387E592E09F938F93A7
:100DF0001F9280E28F931F930F930E94D514B80126
:100E000081E00E9477058091D3020FB6F894DEBF8F
:100E10000FBECDBF811152C080E492E09F938F93AB
:100E200081E692E09F938F931F9280E2F82EFF92CB
:100E30001F930F930E94D514B80182E00E9477059A
:100E40002091D1029091D20280914A011F922F935A
:100E50001F929F931F928F938BE692E09F938F93A5
:100E60001F92FF921F930F930E94D514B80183E045
:100E70000E94770580E00E94040C0E94AD0B0FB623
:100E8000F894DEBF0FBECDBFA0960FB6F894DEBFBC
:100E90000FBECDBFDF91CF911F910F91FF90EF90CB
:100EA000DF90CF90BF90AF909F908F907F906F908A
:100EB0005F904F9008958DE392E094CF8DE392E0A0
:100EC000ADCFCF92EF920F938DE0C82E9CE0E92E2C
:100ED0000BE02AE049E068E08FED92E00E94A30277
:100EE0008EED92E00E949A038DED92E00F91EF90CB
:100EF000CF900C949A031F920F920FB60F92112469
:100F00002F933F938F939F93AF93BF938091F8025A
:100F10009091F902A091FA02B091FB023091F70290
:100F200023E0230F2D3758F50196A11DB11D209305
:100F3000F7028093F8029093F902A093FA02B0931B
:100F4000FB028091FC029091FD02A091FE02B09103
:100F5000FF020196A11DB11D8093FC029093FD023A
:100F6000A093FE02B093FF02BF91AF919F918F912A
:100F70003F912F910F900FBE0F901F90189526E86C
:100F8000230F0296A11DB11DD2CF2FB7F894609107
:100F9000F8027091F9028091FA029091FB022FBF42
:100FA00008958230910538F0880F991F880F991F96
:100FB00005970197F1F70895789484B5826084BD10
:100FC00084B5816084BD85B5826085BD85B581604D
:100FD00085BDEEE6F0E0808181608083E1E8F0E0AD
:100FE0001082808182608083808181608083E0E8DC
:100FF000F0E0808181608083E1EBF0E080818460BB
:101000008083E0EBF0E0808181608083EAE7F0E0BC
:101010008081846080838081826080838081816020
:1010200080838081806880831092C100089583301E
:1010300081F028F4813099F08230A9F0089587304A
:10104000A9F08830C9F08430B1F4809180008F7DA0
:1010500003C0809180008F7780938000089584B5CD
:101060008F7784BD089584B58F7DFBCF8091B000CC
:101070008F778093B00008958091B0008F7DF9CF75
:10108000CF93DF9390E0FC01E250FF4F24918E5EFE
:101090009E4FFC0184918823C9F090E0880F991F2E
:1010A000FC01E65CFE4FA591B491FC01E05DFE4FB2
:1010B000C591D49161110DC09FB7F8948C91209582
:1010C00082238C938881282328839FBFDF91CF912F
:1010D0000895623051F49FB7F8943C91822F809527
:1010E00083238C93E8812E2BEFCF8FB7F894EC916C
:1010F0002E2B2C938FBFEACF1F93CF93DF93282FF4
:1011000030E0F901E651FF4F8491F901E250FF4FC1
:10111000D491F901EE5EFE4FC491CC23A9F0162FB5
:1011200081110E941708EC2FF0E0EE0FFF1FE05D29
:10113000FE4FA591B4918FB7F894EC91111108C0AE
:10114000D095DE23DC938FBFDF91CF911F9108955F
:10115000DE2BF8CFCF93DF93282F30E0F901E65153
:10116000FF4F8491F901E250FF4FD491F901EE5EF7
:10117000FE4FC491CC23A1F081110E941708EC2FDF
:10118000F0E0EE0FFF1FEA5DFE4FA591B491EC91E8
:10119000ED2381E090E009F480E0DF91CF910895A4
:1011A00080E090E0FACF8E3008F08E5020914B0115
:1011B00090E4299F900111248770822B80937C00FA
:1011C00080917A00806480937A0080917A0086FD15
:1011D000FCCF80917800909179000895FC01918D69
:1011E000228D892F90E0805C9F4F821B91098F7325
:1011F00099270895FC01918D828D981731F0828D89
:10120000E80FF11D858D90E008958FEF9FEF089511
:10121000FC01918D828D981761F0A28DAE0FBF2FCA
:10122000B11D5D968C91928D9F5F9F73928F90E020
:1012300008958FEF9FEF0895FC01538D448D252F66
:1012400030E0842F90E0821B930B541710F0CF9660
:1012500008950197089582E89AE0892B49F080E08B
:1012600090E0892B29F00E94820A81110C940000E1
:101270000895FC01A48DA80FB92FB11DA35ABF4F2B
:101280002C91848D90E001968F739927848FA68985
:10129000B7892C93A089B1898C91837080648C93D9
:1012A000938D848D981306C00288F389E02D808188
:1012B0008F7D80830895CF93DF93EC01888D882301
:1012C000B9F0AA89BB89E889F9898C9185FD03C0A9
:1012D000808186FD0DC00FB607FCF7CF8C9185FF8E
:1012E000F2CF808185FFEDCFCE010E943909E9CF91
:1012F000DF91CF910895EF92FF920F931F93CF93B9
:10130000DF93EC0181E0888F9B8D8C8D98131AC040
:10131000E889F989808185FF15C09FB7F894EE8927
:10132000FF896083E889F989808183708064808384
:101330009FBF81E090E0DF91CF911F910F91FF90CF
:10134000EF900895F62E0B8D10E00F5F1F4F0F7377
:101350001127E02E8C8D8E110CC00FB607FCFACF32
:10136000E889F989808185FFF5CFCE010E9439098E
:10137000F1CFEB8DEC0FFD2FF11DE35AFF4FF08203
:101380009FB7F8940B8FEA89FB8980818062CFCF69
:10139000CF92DF92EF92FF921F93CF93DF93EC01F6
:1013A0006A017B01122FE889F98982E08083C114E8
:1013B00081EED806E104F104A1F060E079E08DE36C
:1013C00090E0A70196010E9499142150310941092A
:1013D00051095695479537952795211580E138078E
:1013E00098F0E889F989108260E874E88EE190E06D
:1013F000A70196010E949914215031094109510910
:101400005695479537952795EC85FD853083EE8574
:10141000FF852083188EEC89FD891083EA89FB897A
:10142000808180618083EA89FB89808188608083F4
:10143000EA89FB89808180688083EA89FB898081D1
:101440008F7D8083DF91CF911F91FF90EF90DF9090
:10145000CF9008951F920F920FB60F9211242F93E1
:101460008F939F93EF93FF93E0911003F0911103FB
:101470008081E0911603F091170382FD1BC09081DB
:10148000809119038F5F8F7320911A03821741F0A7
:10149000E0911903F0E0E050FD4F958F8093190320
:1014A000FF91EF919F918F912F910F900FBE0F9011
:1014B0001F9018958081F4CF1F920F920FB60F9254
:1014C00011242F933F934F935F936F937F938F9349
:1014D0009F93AF93BF93EF93FF9380E093E00E94BD
:1014E0003909FF91EF91BF91AF919F918F917F91BA
:1014F0006F915F914F913F912F910F900FBE0F9081
:101500001F90189580E093E00E94EE0821E0892B5F
:1015100009F420E0822F0895E0E0F3E013821282C4
:1015200088EE93E0A0E0B0E084839583A683B78340
:1015300085E892E09183808385EC90E095878487AD
:1015400084EC90E09787868780EC90E0918B808B8D
:1015500081EC90E0938B828B82EC90E0958B848B76
:1015600086EC90E0978B868B118E128E138E148EE4
:101570000895AF92BF92CF92DF92EF92FF920F93B6
:101580001F93CF93DF936C017B018B01040F151F19
:10159000EB015E01AE18BF08C017D10759F0699181
:1015A000D601ED91FC910190F081E02DC6010995E5
:1015B000892B79F7C501DF91CF911F910F91FF9092
:1015C000EF90DF90CF90BF90AF900895FB01019016
:1015D0000020E9F73197AF01461B570BDC01ED9175
:1015E000FC910280F381E02D0994DC01ED91FC91E6
:1015F0000190F081E02D099460E771E00C94E60A17
:101600000F931F93CF93DF938C01D0E0C0E061155F
:10161000710519F00E94E60AEC01C8010E94FC0A5B
:101620008C0F9D1FDF91CF911F910F91089568EE50
:1016300073E080E090E00C94A20F80919F01909164
:10164000A0010C944E0E7F928F929F92AF92BF9208
:10165000CF92DF92EF92FF920F931F93CF93DF937E
:1016600000D0CDB7DEB70091990110919A019FB7D4
:10167000F894D80118962D913C91232B99F09FBF97
:1016800081E090E00F900F90DF91CF911F910F912B
:10169000FF90EF90DF90CF90BF90AF909F908F9092
:1016A0007F900895F82E88E79FE09A8389830E94AF
:1016B000170BC0909D01D0909E0181E090E0F80151
:1016C00091878087F286E091A101F091A20124E048
:1016D000F29EC0011124E80FF91FA280B380F12C03
:1016E000E12C4F0186E0782EEA14FB04E1F4F801C6
:1016F00080859185019721F482E090E09187808731
:10170000D80118968D919C91029751F4F60162814F
:101710007381AB01C6010E941601C6010E94D10C63
:1017200090E080E0AFCFD401ED91FC917E9CC001B0
:101730007F9C900D1124E80FF91FA081B1812481B5
:10174000358142815381BD0112968D919C910E94F9
:10175000E50EBFEFEB1AFB0AC7CFE0919901F091BC
:101760009A01A081B1818785882319F01786858524
:101770008FBF8189882311F0118A78948FB7F894EC
:1017800060E67FE012968D919C910E943601CF9386
:10179000DF9390E020918F013091900182179307A1
:1017A00080F5E0919901F0919A0140815181209159
:1017B0008D0130918E01880F991F820F931FDC01DC
:1017C0006D917C91FB01C081D181DA011496ED917C
:1017D000FC91DB0112969C9181812FB7F8948917B7
:1017E00008F491835C834B832FBF24813581398337
:1017F00028838A837583648390E080E0DF91CF91B2
:10180000089583E090E0FACF1F93CF93DF9390E0A9
:1018100020918F013091900182179307C0F5E091DC
:101820009901F0919A01C081D181EC81FD812091D3
:101830008D0130918E01880F991F820F931FDC015B
:101840008D919C91DC012D913C911FB7F89484817E
:101850009581DC018D919C91DC018D919C9195830A
:101860008483892B91F0D90112968C918183F9019F
:101870001482138287E891E00E94880D1FBF90E0D8
:1018800080E0DF91CF911F9108958C85EFCF83E0A9
:1018900090E0F7CFDC011496ED91FC9184E090E0AC
:1018A000938382830895EC01EC81FD81818124E0A2
:1018B00030E0338322838F3F09F07894E985FA85FD
:1018C0000995E0919901F0919A01108A8785882302
:1018D00019F0178685858FBF8189882311F0118AB9
:1018E00078948FB7F8948F819885EC81FD81029769
:1018F00009F5A481B581109731F460E67FE08A8113
:101900009B810E9436010D90BC91A02D14961C92D3
:101910001E9213978D919C9195838483EACF0D90AD
:10192000BC91A02D14961C921E9213978D919C91A0
:1019300095838483A481B581109789F7DECF0F93B7
:101940001F93CF93DF930091990110919A01C09159
:101950009B01D0919C01F80180859185029751F0FF
:1019600080919D0190919E01DF91CF911F910F91E8
:101970000C94450F209779F3FE010995ECCFDC011B
:101980001496ED91FC91159790811D968C91981766
:1019900028F49F5F908390E080E0089584E090E0D9
:1019A0000895DC011496ED91FC9115971B968C918E
:1019B0008183808181508083811103C013821282D0
:1019C000089581E090E0938382830895E0918901F6
:1019D000F0918A0190E0880F991FE80FF91F60814C
:1019E0007181DB011496ED91FC9180818F5F808382
:1019F00050E040E087E891E00C94A30DAB01FB01BF
:101A0000A481B581E0919901F0919A0112968D918E
:101A10009C911397892B31F481E090E013969C936D
:101A20008E931297A481B5818D919C911197958386
:101A3000848311961C921E92BD01CF0102960C94D4
:101A40009110AF92BF92CF92DF92EF92FF920F93DD
:101A50001F93CF93DF93C0919901D0919A01FE011A
:101A6000019111917F01F801C480D580FB011183A0
:101A70000083F60182819381049731F5B70189E9EA
:101A800091E00E9498105C01E880F9800E151F0516
:101A9000B1F0C8010E94D10C8C819D81F501918328
:101AA0008083BD82AC82C701DF91CF911F910F91DE
:101AB000FF90EF90DF90CF90BF90AF900895F60128
:101AC000808181508083E8CF6E817F81FB0180819E
:101AD00091819F838E83F8018385F601818381E064
:101AE00090E093838283A801C7010E949110B701FF
:101AF00089E991E00E940010892B39F4EE81FF8181
:101B0000E280F380F982E882CECFE880F980CBCF03
:101B1000CF93DF93C0919901D0919A01BE016E5F7E
:101B20007F4F89E991E00E940010009749F0688199
:101B300079810E941F0F81E090E0DF91CF9108959D
:101B400090E080E0FACFCF93DF93E0919901F0919C
:101B50009A018081918126813781EC01AC81BD8120
:101B60001296CD91DC911397249731F4C2E0D0E026
:101B70001396DC93CE9312977183608341155105C0
:101B8000B9F4A481B5814D915C911197558344833B
:101B900011961C921E92B783A6830680F781E02DD2
:101BA0007383628331832083DF91CF910C941F0F65
:101BB00057834683F2CFAF92BF92CF92DF92EF92DC
:101BC000FF920F931F93CF93DF93DC01AD90BC90F6
:101BD000E501E881F9812A813B81DB01CD90DC9030
:101BE000E6015B834A8381E090E0B0E0A0E03097BB
:101BF00011F00097A9F4109779F10D90BC91A02DE8
:101C00006D937C93E601F983E883DF91CF911F9177
:101C10000F91FF90EF90DF90CF90BF90AF9008951D
:101C200000811181E801EA80FB802E153F0558F400
:101C30004E155F0518F42417350758F0DF01E80149
:101C4000E881F981D4CF2417350718F04E155F05C8
:101C5000A8F790E080E0CBCFD501D2CFCF93DF9330
:101C6000DC011296ED91FC9113970D90BC91A02D83
:101C700012962D913C91DF01A41BB50BA217B3075F
:101C800030F0420F531FDF91CF910C94DB0D415088
:101C90005109420F531F4E1B5F0BF5CFAF92BF92FE
:101CA000CF92DF92EF92FF920F931F93CF93DF9328
:101CB000DC01ED90FC901197F7012281338112969F
:101CC0004D915C912417350708F46EC0138212827F
:101CD00030E020E0F701C081D181209709F459C09C
:101CE000A881B98112964D915C914217530709F072
:101CF00050C0DE0103E010E02D913C91D901159612
:101D00001C930E9314970D90BC91A02D109749F041
:101D10006D917C911197FB01628173814617570782
:101D200059F38C01F90111821082F701B183A0836C
:101D300082E0E82EF12CE881F981A080B1808A85CB
:101D40009B8582309105A9F183309105B9F1892BEA
:101D500061F4CE80DF80C6010E94BF0C892B29F47C
:101D6000B60187E891E00E94FE0CE881F981848148
:101D70009581039759F4468157814115510511F119
:101D8000F582E482BE01C8010E942E0EE501209773
:101D900091F6DF91CF911F910F91FF90EF90DF901F
:101DA000CF90BF90AF9008952F5F3F4F3383228332
:101DB00091CF888599850E944E0ED7CFEC81FD8109
:101DC0000995D3CF15821482E1CFCF93DF93DB0146
:101DD000ED91FC91A481B581A230B10568F53783FE
:101DE0002683119711F5EC012A813B81A881B981E5
:101DF00012968D919C91B901641B750B6817790738
:101E000068F0480F591F5383428384E090E0958324
:101E1000848390E080E0DF91CF9108954150510993
:101E2000480F591F421B530BEECF22E030E03583A1
:101E300024830E942E0EEDCF87E090E0ECCFFB01D3
:101E4000DC0112964D915C9162817381A481B58110
:101E500012968D919C91029719F4CF010C94CE00AB
:101E6000CF010C941601CB01DB0112966D917C9190
:101E700013971496ED91FC91228133812230310524
:101E800011F40C94EE000C940E01DC0112966D918D
:101E90007C911397ED91FC9140815181DB01ED9193
:101EA000FC91228933892115310519F04217530716
:101EB00029F4DB01ED93FC930C94EE00F901F1CFD2
:101EC000CF93DF9300D0CDB7DEB7BE016F5F7F4FFA
:101ED00087E891E00E94210DBC0189819A810E94CE
:101EE000330F0F900F90DF91CF910895F894FFCFAB
:101EF000ECEE08958F939F9380E00E94820F9F9154
:101F00008F9118951F920F920FB60F9211242F9355
:101F10003F934F935F936F937F93AF93BF93EF93F1
:101F2000FF930E94E60CFF91EF91BF91AF917F91DB
:101F30006F915F914F913F912F910F900FBE0F9036
:101F40001F900895109281001092800010928200DC
:101F50001092850010928400611520E172078105BE
:101F60009105A0F4E4E0660F771FEA95E1F7615070
:101F7000710981E092E096BB90936F0070938900A5
:101F8000609388008860809381000895611520E83F
:101F900072078105910530F4660F771F6150710952
:101FA00082E0E8CF6C3F2FEF720723E082079105B4
:101FB00058F442E096958795779567954A95D1F7BD
:101FC0006150710983E0D6CF6115710520E1820768
:101FD000910558F434E096958795779567953A95ED
:101FE000D1F76150710984E0C5CF26E096958795B9
:101FF000779567952A95D1F76150710985E0BACF39
:102000000F931F93CF93DF93EC01A881B981EB016C
:10201000E881F9811696CD91DC9117972097C1F14F
:102020008A819B81309709F43FC0EC010C811D81AE
:1020300022813381E9014C815D81E8013981EA0126
:102040002981321788F522E030E0E8013B832A83BA
:1020500020813181EB0139832883C281D3812C8196
:102060003D8116964D915C91179751834083179649
:10207000FC93EE931697CD93DC934C85F901518137
:10208000541708F44183DF91CF911F910F91089568
:10209000309751F0EC018C819D81EC014C815D8188
:1020A00022E030E0EA01D2CF90E080E0ECCFCF93A5
:1020B000DF93DB011296ED91FC9141155105A1F0E2
:1020C0002385DC01ED91FC91B0E0A0E0309789F42C
:1020D000109709F16D937C9390E080E0DB01ED9324
:1020E000FC93DF91CF9108950480F581E02D21814B
:1020F000E8CFC281D3814115510541F03B853217AC
:1021000038F3DF010190F081E02DE0CF0C80DD811C
:10211000C02D3981F4CFDC016D937C9381E090E098
:10212000DDCFFB015383428341E050E00C94571014
:10213000EF92FF920F931F93CF93DF938C01FC01DB
:10214000C081D181EE80FF80F701808191819F83E2
:102150008E83C8010E940010892B41F4EE81FF811B
:10216000309761F08281938199838883C701DF91E1
:10217000CF911F910F91FF90EF900895F801848106
:102180009581F2CF5058BB27AA270E94DA100C94F1
:1021900054120E94461238F00E944D1220F039F479
:1021A0009F3F19F426F40C9443120EF4E095E7FBDC
:1021B0000C943D12E92F0E94651258F3BA1762077A
:1021C00073078407950720F079F4A6F50C9487121D
:1021D0000EF4E0950B2EBA2FA02D0B01B901900142
:1021E0000C01CA01A0011124FF27591B99F0593F86
:1021F00050F4503E68F11A16F040A22F232F342FCE
:102200004427585FF3CF469537952795A795F0401B
:102210005395C9F77EF41F16BA0B620B730B840B30
:10222000BAF09150A1F0FF0FBB1F661F771F881FE8
:10223000C2F70EC0BA0F621F731F841F48F4879540
:1022400077956795B795F7959E3F08F0B0CF939532
:10225000880F08F09927EE0F9795879508950E94AB
:10226000191208F481E008950E9448110C94541248
:102270000E944D1258F00E94461240F029F45F3F30
:1022800029F00C943D1251110C9488120C944312B5
:102290000E94651268F39923B1F3552391F3951BBE
:1022A000550BBB27AA2762177307840738F09F5F77
:1022B0005F4F220F331F441FAA1FA9F335D00E2EE4
:1022C0003AF0E0E832D091505040E695001CCAF751
:1022D0002BD0FE2F29D0660F771F881FBB1F261714
:1022E00037074807AB07B0E809F0BB0B802DBF01EB
:1022F000FF2793585F4F3AF09E3F510578F00C94BA
:102300003D120C9488125F3FE4F3983ED4F3869517
:1023100077956795B795F7959F5FC9F7880F911DDA
:102320009695879597F90895E1E0660F771F881FC6
:10233000BB1F621773078407BA0720F0621B730B79
:10234000840BBA0BEE1F88F7E09508950E94AD113B
:102350006894B1110C94881208950E946D1288F04F
:102360009F5798F0B92F9927B751B0F0E1F0660F59
:10237000771F881F991F1AF0BA95C9F714C0B1309A
:1023800091F00E948712B1E008950C948712672F94
:10239000782F8827B85F39F0B93FCCF386957795C9
:1023A0006795B395D9F73EF49095809570956195B2
:1023B0007F4F8F4F9F4F0895E89409C097FB3EF4DD
:1023C00090958095709561957F4F8F4F9F4F992382
:1023D000A9F0F92F96E9BB279395F6958795779500
:1023E0006795B795F111F8CFFAF4BB0F11F460FFC0
:1023F0001BC06F5F7F4F8F4F9F4F16C0882311F018
:1024000096E911C0772321F09EE8872F762F05C02B
:10241000662371F096E8862F70E060E02AF09A95C6
:10242000660F771F881FDAF7880F9695879597F9BB
:102430000895990F0008550FAA0BE0E8FEEF161655
:102440001706E807F907C0F012161306E407F507A8
:1024500098F0621B730B840B950B39F40A2661F01C
:10246000232B242B252B21F408950A2609F4A140BF
:10247000A6958FEF811D811D089597F99F6780E8CC
:1024800070E060E008959FEF80EC089500240A94C6
:102490001616170618060906089500240A9412163F
:1024A0001306140605060895092E0394000C11F472
:1024B000882352F0BB0F40F4BF2B11F460FF04C01F
:1024C0006F5F7F4F8F4F9F4F089557FD9058440F78
:1024D000551F59F05F3F71F04795880F97FB991F83
:1024E00061F09F3F79F08795089512161306140640
:1024F000551FF2CF4695F1DF08C0161617061806CD
:10250000991FF1CF86957105610508940895E894A7
:10251000BB2766277727CB0197F908950E941912E8
:1025200008F48FEF08950E94A6120C9454120E9492
:10253000461238F00E944D1220F0952311F00C94B1
:102540003D120C94431211240C9488120E946512BF
:1025500070F3959FC1F3950F50E0551F629FF001F6
:10256000729FBB27F00DB11D639FAA27F00DB11D0F
:10257000AA1F649F6627B00DA11D661F829F222798
:10258000B00DA11D621F739FB00DA11D621F839F1F
:10259000A00D611D221F749F3327A00D611D231FF5
:1025A000849F600D211D822F762F6A2F11249F5743
:1025B00050409AF0F1F088234AF0EE0FFF1FBB1F46
:1025C000661F771F881F91505040A9F79E3F510505
:1025D00080F00C943D120C9488125F3FE4F3983E17
:1025E000D4F3869577956795B795F795E7959F5FAF
:1025F000C1F7FE2B880F911D9695879597F9089541
:10260000FA01EE0FFF1F309621053105A1F161158A
:10261000710561F48038BFE39B0749F168949038F5
:10262000810561F08038BFEF9B0741F099234AF59F
:10263000FF3FE1053105210519F1E8940894E7957C
:10264000D901AA2329F4AB2FBE2FF85FD0F310C015
:10265000FF5F70F4A695E0F7F73950F019F0FF3AF4
:1026600038F49F779F930DD00F9007FC90580895F2
:1026700046F00C94431260E070E080E89FE3089518
:102680004FE79F775F934F933F932F930E94FB13E6
:102690002F913F914F915F910E9493120C94581388
:1026A00029F416F00C943D120C9487120C944312EA
:1026B0000E946D12A8F39638A0F707F80F92E894DD
:1026C0002BE33AEA48EB5FE70E94A9120F920F92C0
:1026D0000F924DB75EB70F920E944314E8E6F0E008
:1026E0000E948A134F915F91EF91FF91E595EE1F44
:1026F000FF1F49F0FE57E0684427EE0F441FFA958C
:10270000E1F74195550B0E94BD130F9007FE0C9405
:10271000B1130895DF93CF931F930F93FF92EF921E
:10272000DF927B018C01689406C0DA2EEF010E94D3
:10273000A612FE01E894A5912591359145915591F8
:10274000A6F3EF010E94DA10FE019701A801DA94C6
:1027500069F7DF90EF90FF900F911F91CF91DF917C
:1027600008959B01AC0160E070E080E89FE30C9469
:1027700034110C943D120C9477140E946D12D8F30E
:102780009923C9F3940F511DA3F39150504094F035
:1027900059F0882332F0660F771F881F9150504000
:1027A000C1F79E3F51052CF7880F911D969587958F
:1027B00097F908955F3FACF0983E9CF0BB27869553
:1027C00077956795B79508F4B1609395C1F7BB0FFE
:1027D00058F711F460FFE8CF6F5F7F4F8F4F9F4F27
:1027E000E3CF0C94881216F00C9477140C944312D7
:1027F00068940C943D120E946D12A8F39923C1F3C2
:10280000AEF3DF93CF931F930F93FF92C92FDD2772
:1028100088232AF02197660F771F881FDAF720E0B8
:1028200030E040E85FEB9FE3883920F0803E38F0ED
:1028300021968F770E94C310E0E9F0E004C00E9467
:10284000C310EDEBF0E00E948A138B01BE01EC0196
:10285000FB2E6F5771097595771F880B990B0E9496
:10286000DE1128E132E741E35FE30E94A612AF2DBB
:102870009801AE01FF900F911F91CF91DF910E94BF
:10288000DA100C945412FA01DC01AA0FBB1F9B0151
:10289000AC01BF5728F4222733274427507820C0A3
:1028A000B75190F4AB2F0024469537952795011C1E
:1028B000A395D2F3002071F0220F331F441FB3956C
:1028C000DAF30ED00C94C21061307105A0E88A07CB
:1028D000B94630F49B01AC016627772788279078AA
:1028E000309621F0208331834283538308959F3FA4
:1028F00031F0915020F4879577956795B795880FBB
:10290000911D9695879597F9089597FB072E16F4D4
:10291000009407D077FD09D00E94BB1407FC05D0B6
:102920003EF4909581959F4F0895709561957F4FE6
:102930000895A1E21A2EAA1BBB1BFD010DC0AA1F00
:10294000BB1FEE1FFF1FA217B307E407F50720F018
:10295000A21BB30BE40BF50B661F771F881F991F93
:102960001A9469F760957095809590959B01AC01DC
:10297000BD01CF010895AA1BBB1B51E107C0AA1FCF
:10298000BB1FA617B70710F0A61BB70B881F991F10
:102990005A95A9F780959095BC01CD010895EE0F49
:1029A000FF1F0590F491E02D0994AEE0B0E0EBED4F
:1029B000F4E10C9491170D891E898F89988D26E07A
:1029C0002C831A83098397FF02C080E090E8019767
:1029D0009E838D83AE01455E5F4F698D7A8DCE01FA
:1029E00001960E9405154D815E8157FD0AC02F8119
:1029F0003885421753070CF49A01020F131FF80190
:102A000010822E96E4E00C94AD17ABE0B0E0EBE062
:102A1000F5E10C9483177C013B018A01FC011782CC
:102A20001682838181FFC8C1CE0101965C01F70146
:102A30009381F30193FD859193FF81913F01882359
:102A400009F453C1853239F493FD859193FF819147
:102A50003F01853229F4B70190E00E94F516E7CFD7
:102A6000912C212C312CFFE1F31538F08B3211F130
:102A700090F4803209F1833229F137FC3CC020ED1B
:102A8000280F2A3050F536FE20C08AE0989E200D8F
:102A90001124922E06C08D3291F0803371F7689424
:102AA00030F8F30193FD859193FF81913F018111EE
:102AB000DACF21C0689431F8689432F8F2CF689484
:102AC00033F8EFCF689434F8ECCFEAE02E9E200D77
:102AD0001124222E689435F8E4CF8E3229F436FC86
:102AE00004C1689436F8DDCF8C3619F4689437F851
:102AF000D8CF8836B1F2982F9F7D95549330E0F06F
:102B00008336A1F18337C1F1833509F063C0280111
:102B1000F2E04F0E511CF801C080D180692D70E0A9
:102B200036FC02C06FEF7FEFC6010E94DF164C013A
:102B3000689437F882010AC00C5F1F4FFFE3F983E6
:102B400088248394912C6501E89437F833FE2DC0D6
:102B5000522C8114910471F5552009F468CFB70106
:102B600080E290E00E94F5165A94F6CFF801808139
:102B700089830E5F1F4FE4CF2801F2E04F0E511CF6
:102B8000F801C080D180692D70E036FC02C06FEF83
:102B90007FEFC6010E94EA164C018201D5CFB70132
:102BA00080E290E00E94F5162A942814190409F096
:102BB000B0F7CECFF60137FC859137FE81916F01DA
:102BC000B70190E00E94F51651105A94F1E08F1A67
:102BD0009108BFCF843619F0893609F077C0F80123
:102BE00037FE6BC060817181828193810C5F1F4FC2
:102BF000F32DFF763F2E97FF09C090958095709535
:102C000061957F4F8F4F9F4F689437F82AE030E0EF
:102C1000A5010E942517C82ECA188C2C432C36FEFD
:102C20000CC0E89440F8C91440F434FE05C032FCEE
:102C300003C0F32DFE7E4F2E892C44FE95C0FE016D
:102C4000EC0DF11D8081803309F087C0242D297E91
:102C5000422E842D8870582E43FC95C040FE8FC0B4
:102C60009C2C821418F42C0C922C981844FE91C0C1
:102C7000B70180E390E00E94F51642FE09C088E7A4
:102C800090E041FE02C088E590E0B7010E94F51691
:102C9000C91408F48AC0CA94D12C9FEFC91AD90A62
:102CA000CA0CDB1CF60182916F01B70190E00E9413
:102CB000F516AC14BD04B1F74FCF60817181072EBA
:102CC000000C880B990B0E5F1F4F92CFD32CE8940A
:102CD000D4F82AE030E0853739F1232D297FD22E30
:102CE0008F3601F148F48835A9F0F7018681978184
:102CF0002B96E2E10C949F17803749F08837A9F7AB
:102D0000D4FE02C06894D2F820E130E00DC068948F
:102D1000D4F8F6CF34FE03C0822F8660D82E20E18F
:102D200032E002C028E030E0F801D7FE0FC0608139
:102D30007181828193810C5F1F4FA5010E9425172D
:102D4000C82ECA183D2CE89437F867CF608171818E
:102D500090E080E00E5F1F4FF0CF42FC02C08394F2
:102D600078CF8394839475CF842D867809F471CFBE
:102D7000F6CFB70180E290E00E94F51683948214AA
:102D8000C0F3512C73CF522C5818821408F46ECF14
:102D9000F8CF842D867809F47BCF8BE241FE80E268
:102DA00047FC8DE2B70190E071CFB70180E390E07E
:102DB0000E94F5169A946CCF8FEF9FEF99CFFC018C
:102DC0000590615070400110D8F7809590958E0F56
:102DD0009F1F0895FC016150704001900110D8F7C9
:102DE000809590958E0F9F1F08950F931F93CF93FB
:102DF000DF93182F092FEB018B8181FD09C01FEF95
:102E00000FEF812F902FDF91CF911F910F91089598
:102E100082FF14C02E813F818C819D812817390744
:102E20003CF4E881F981CF0101969983888310836E
:102E30008E819F8101969F838E83E3CFE885F985FC
:102E4000812F0995892BA1F3DACFFA01AA2728301F
:102E500051F1203181F1E8946F936E7F6E5F7F4F67
:102E60008F4F9F4FAF4FB1E03ED0B4E03CD0670FE3
:102E7000781F891F9A1FA11D680F791F8A1F911D36
:102E8000A11D6A0F711D811D911DA11D20D009F486
:102E900068943F912AE0269F11243019305D3193C8
:102EA000DEF6CF010895462F4770405D4193B3E0B1
:102EB0000FD0C9F7F6CF462F4F70405D4A3318F058
:102EC000495D31FD4052419302D0A9F7EACFB4E009
:102ED000A6959795879577956795BA95C9F70097C1
:102EE0006105710508959B01AC010A2E0694579562
:102EF000479537952795BA95C9F7620F731F841FB9
:102F0000951FA01D08952F923F924F925F926F924E
:102F10007F928F929F92AF92BF92CF92DF92EF9269
:102F2000FF920F931F93CF93DF93CDB7DEB7CA1BEA
:102F3000DB0B0FB6F894DEBF0FBECDBF09942A8815
:102F4000398848885F846E847D848C849B84AA84BD
:102F5000B984C884DF80EE80FD800C811B81AA814A
:102F6000B981CE0FD11D0FB6F894DEBF0FBECDBF15
:082F7000ED010895F894FFCF74
:102F780000000A1F1F0E0400100200001A010000C2
:102F88000000FF000000000000001E0100002201F8
:102F980000000000000000800000000000020000A7
:102FA8000000000100000000010004000000010111
:102FB80000000000010100000000120100000000F4
:102FC800EB02B90A400143015465737420466169F4
:102FD8006C65642121212C206C696E653A34392096
:102FE8000D0A0048656C6C6F204F53454B2D41729C
:102FF8006475696E6F21009D03DE010400D901012B
:1030080000D1010100B5010200080113041002D328
:1030180001A5010100A9010200B9010100C800C50C
:10302800010100F401B901C501B502D3010000F4A2
:103038000100000000BD02D30100000202000000F0
:1030480000D301C502FFFF0100DB01C90202E6014E
:10305800F401020210021E02CE0226010002001D27
:103068000B80FF011E02CE022C01010000A1050207
:1030780002011E02CE0232010200005706010101C0
:103088001E02CE0238010303009F0C00000100005D
:103098000000506C75732070726573736564004D21
:1030A800696E75732070726573736564004F4E00A6
:1030B8004F4646004C55583A25336457202533640B
:1030C8004120253364450053686164653A202573BF
:1030D800004C696768743A20257300436C6F636B12
:1030E8003A20253032753A253032753A2530327516
:1030F80000000000007B09B90A1C095B09EE0808FA
:0431080009FA0800B8
:00000001FF
